:020000040800F2
:1000000000280020991D0008850A0008870A0008BA
:10001000890A00088B0A00088D0A00080000000009
:100020000000000000000000000000008F0A00082F
:10003000910A000800000000930A0008950A0008D1
:10004000E11D0008E11D0008E11D0008E11D000898
:10005000E11D0008E11D0008E11D00089D0A0008DF
:10006000E11D0008E11D0008E11D0008E11D000878
:10007000E11D0008E11D0008E11D0008E11D000868
:10008000E11D0008E11D0008E11D0008E11D000858
:10009000E11D0008E11D0008E11D0008E11D000848
:1000A000E11D0008E11D0008E11D0008E11D000838
:1000B000E11D0008A90A000800000000E11D000879
:1000C000E11D00080000000000000000E11D000824
:1000D00000000000E11D0008E11D00080000000014
:1000E000E11D0008E11D0008E11D000800000000FE
:1000F0000000000000000000000000000000000000
:0C01000000000000000000005FF808F1A3
:10010C0010B5054C237833B9044B13B10448AFF345
:10011C0000800123237010BD0C00002000000000A3
:10012C003C1E000808B5034B1BB103490348AFF351
:10013C00008008BD00000000100000203C1E0008DC
:10014C004FF0FF0C1CEAD0521EBF1CEAD15392EAAE
:10015C000C0F93EA0C0F6FD01A4480EA010C40028A
:10016C0018BF5FEA41211ED04FF0006343EA5010E4
:10017C0043EA5111A0FB01310CF00040B1F5000F26
:10018C003EBF490041EAD3715B0040EA010062F1D5
:10019C007F02FD2A1DD8B3F1004F40EBC25008BFBF
:1001AC0020F00100704790F0000F0CF0004C08BFDD
:1001BC0049024CEA502040EA51207F3AC2BFD2F1AA
:1001CC00FF0340EAC250704740F400004FF00003B8
:1001DC00013A5DDC12F1190FDCBF00F000407047F2
:1001EC00C2F10002410021FA02F1C2F1200200FA30
:1001FC0002FC5FEA310040F1000053EA4C0308BFF7
:10020C0020EADC70704792F0000F00F0004C02BF47
:10021C00400010F4000F013AF9D040EA0C0093F0C2
:10022C00000F01F0004C02BF490011F4000F013B1C
:10023C00F9D041EA0C018FE70CEAD15392EA0C0F8A
:10024C0018BF93EA0C0F0AD030F0004C18BF31F0F5
:10025C00004CD8D180EA010000F00040704790F0CB
:10026C00000F17BF90F0004F084691F0000F91F06F
:10027C00004F14D092EA0C0F01D142020FD193EA35
:10028C000C0F03D14B0218BF084608D180EA0100BD
:10029C0000F0004040F0FE4040F40000704740F099
:1002AC00FE4040F44000704780F0004002E000BF88
:1002BC0081F0004142001FBF5FEA410392EA030F45
:1002CC007FEA226C7FEA236C6AD04FEA1262D2EB8F
:1002DC001363C1BFD218414048404140B8BF5B4294
:1002EC00192B88BF704710F0004F40F4000020F02D
:1002FC007F4018BF404211F0004F41F4000121F043
:10030C007F4118BF494292EA030F3FD0A2F101028C
:10031C0041FA03FC10EB0C00C3F1200301FA03F1CA
:10032C0000F0004302D5494260EB4000B0F5000FED
:10033C0013D3B0F1807F06D340084FEA310102F1AC
:10034C000102FE2A51D2B1F1004F40EBC25008BF5E
:10035C0020F0010040EA03007047490040EB000028
:10036C00013A28BFB0F5000FEDD2B0FA80FCACF129
:10037C00080CB2EB0C0200FA0CF0AABF00EBC25056
:10038C0052421843BCBFD0401843704792F0000F44
:10039C0081F4000106BF80F400000132013BB5E797
:1003AC004FEA41037FEA226C18BF7FEA236C21D00D
:1003BC0092EA030F04D092F0000F08BF0846704772
:1003CC0090EA010F1CBF0020704712F07F4F04D140
:1003DC00400028BF40F00040704712F100723CBF53
:1003EC0000F50000704700F0004343F0FE4040F47D
:1003FC00000070477FEA226216BF08467FEA23633B
:10040C000146420206BF5FEA412390EA010F40F425
:10041C00800070474FF0000304E000BF10F0004371
:10042C0048BF40425FEA000C08BF704743F0964358
:10043C0001464FF000001CE050EA010208BF704773
:10044C004FF000030AE000BF50EA010208BF7047FA
:10045C0011F0004302D5404261EB41015FEA010C0F
:10046C0002BF84460146002043F0B64308BFA3F107
:10047C008053A3F50003BCFA8CF2083AA3EBC253E9
:10048C0010DB01FA02FC634400FA02FCC2F1200208
:10049C00BCF1004F20FA02F243EB020008BF20F03F
:1004AC000100704702F1200201FA02FCC2F12002A5
:1004BC0050EA4C0021FA02F243EB020008BF20EA9A
:1004CC00DC7070474FF0FF3C06E000BF4FF0010CB2
:1004DC0002E000BF4FF0010C4DF804CD4FEA400292
:1004EC004FEA41037FEA226C18BF7FEA236C11D0DC
:1004FC0001B052EA530C18BF90EA010F58BFB2EB8F
:10050C00030088BFC81738BF6FEAE17018BF40F00E
:10051C00010070477FEA226C02D15FEA402C05D1C2
:10052C007FEA236CE4D15FEA412CE1D05DF8040B47
:10053C00704700BF844608466146FFE70FB5FFF7DA
:10054C00C9FF002848BF10F1000F0FBD4DF808ED92
:10055C00FFF7F4FF0CBF012000205DF808FB00BF83
:10056C004DF808EDFFF7EAFF34BF012000205DF8DD
:10057C0008FB00BF4DF808EDFFF7E0FF94BF01202A
:10058C0000205DF808FB00BF4DF808EDFFF7D2FF27
:10059C0094BF012000205DF808FB00BF4DF808ED6A
:1005AC00FFF7C8FF34BF012000205DF808FB00BF37
:1005BC004FEA4002B2F1FE4F0FD34FF09E03B3EB64
:1005CC0012620DD94FEA002343F0004310F0004FA4
:1005DC0023FA02F018BF404270474FF000007047FA
:1005EC0012F1610F01D1420205D110F0004008BF99
:1005FC006FF0004070474FF00000704772B6FEE796
:10060C0000B591B02822002106A801F009FC0023B6
:10061C0001930293039304930593012206924FF4E2
:10062C00803307930A9202220D920E934FF4E0133B
:10063C000F9306A800F0BCFE80B90F230193022192
:10064C000291002303934FF480620492059301A856
:10065C0001F0E0F820B911B05DF804FBFFF7CEFF14
:10066C00FFF7CCFF00B583B000F068FEFFF7C8FFC2
:10067C0000F01EF800F048F900F056F800F08EF883
:10068C000021064800F06CFD054B019300930023FC
:10069C00044A0549054801F006FBFEE72C00002042
:1006AC0000002041CDCC4C3E6666663F0C0100201C
:1006BC0010B588B000240494059406940794174B45
:1006CC009A6942F010029A619A6902F01002019242
:1006DC00019A9A6942F020029A619A6902F020020A
:1006EC000292029A9A6942F004029A619B6903F0A1
:1006FC0004030393039B02230493094B059304A95E
:10070C00084801F03DF922462146072001F070FA15
:10071C00072001F0A5FA08B010BD00BF0010024080
:10072C00000031100008014000B587B0002302938F
:10073C000393049305930093019317484FF0804261
:10074C000260436083604EF66022C2600361836185
:10075C0000F074FBB0B94FF40053029300230393E1
:10076C000493059302A90C4800F06CFC68B90023B3
:10077C00009301936946084800F05CFD40B907B04E
:10078C005DF804FBFFF73AFFE5E7FFF737FFEEE70D
:10079C00FFF734FFF3E700BF7400002000B587B00B
:1007AC00002302930393049305930093019315483C
:1007BC00154A026047224260836041F28732C26070
:1007CC0003618023836100F039FB90B94FF48053AF
:1007DC00029302A90B4800F035FC68B90023009382
:1007EC0001936946074800F025FD40B907B05DF854
:1007FC0004FBFFF703FFE9E7FFF700FFEEE7FFF766
:10080C00FDFEF3E7BC0000200004004000B589B0F9
:10081C00002304930593069307930368224A93429B
:10082C0008D0B3F1804F10D0204A934228D009B0A1
:10083C005DF804FB1E4B9A6942F400629A619B6955
:10084C0003F400630093009BF1E703F50433DA69CA
:10085C0042F00102DA61DA6902F001020192019AB6
:10086C009A6942F004029A619B6903F004030293B3
:10087C00029B0123049304A90E4801F081F8D6E7EA
:10088C000B4BDA6942F00202DA61DB6903F0020316
:10089C000393039B002211461D2001F0A9F91D2092
:1008AC0001F0DEF9C3E700BF002C0140000400405A
:1008BC00001002400008014000B587B000230293ED
:1008CC0003930493059302680D4B9A4202D007B030
:1008DC005DF804FB03F564439A6942F004029A61E3
:1008EC009B6903F004030193019B4FF48073029303
:1008FC0002230393059302A9024801F041F8E6E7AD
:10090C00002C01400008014010B596B00024129450
:10091C001394149415941094119409940A940B94B0
:10092C000C940D940E940F942022214601A801F0F2
:10093C0077FA2D482D4B0360472343608460632373
:10094C00C360046144618023836100F077FA00285E
:10095C0038D14FF48053129312A9234800F072FB44
:10096C00002832D1204800F095FA002830D100231D
:10097C001093119310A91C4800F05CFC58BB602329
:10098C00099307230A9300220B920C920D920E925C
:10099C000F9209A9144800F0DBFAF8B9002301936F
:1009AC0002930393049305934FF400520692089319
:1009BC0001A90D4800F070FC98B90B48FFF77CFFBB
:1009CC0016B010BDFFF71AFEC3E7FFF717FEC9E715
:1009DC00FFF714FECBE7FFF711FED0E7FFF70EFE93
:1009EC00DCE7FFF70BFEE8E72C000020002C0140B1
:1009FC0008B50268174B1B689A4200D008BD02214B
:100A0C00154801F0CDF8154B1870154B1B68586A3A
:100A1C0080B2144A108000225A62FFF7FBFC024697
:100A2C001149124801F04EF9FFF7C2FD40B2104BCC
:100A3C001870002805DB0F2805DD0D4B0F221A70EE
:100A4C0001E000221A700B4B1B68094A92F9002036
:100A5C005A63D3E7BC000020000801402A000020A4
:100A6C007400002028000020000020410C01002010
:100A7C00040100202C000020FEE7FEE7FEE7FEE765
:100A8C00FEE770477047704708B500F069FC08BD79
:100A9C0008B5022001F08CF808BD000008B502482A
:100AAC0000F0DCF808BD00BFBC00002082B00E4B8B
:100ABC009A6942F001029A619A6902F0010200926D
:100ACC00009ADA6942F08052DA61DB6903F08053F4
:100ADC000193019B054A536823F0E06343F00073D4
:100AEC00536002B0704700BF00100240000001408C
:100AFC0070B4036A026A22F00102026246688269DB
:100B0C0022F073020C6844EA020523F002028B689F
:100B1C0013430D4CA04209D00B4CA0420DD04660A3
:100B2C0085614A684263036270BC704723F0080316
:100B3C00CA68134323F00403EEE726F440764A69AF
:100B4C0032438E691643EAE7002C014030B4036A45
:100B5C00026A22F4807202624568C26922F0730252
:100B6C000C68224323F400738C6843EA04230F4C73
:100B7C00A04209D00D4CA0420ED04560C2614A681B
:100B8C00C263036230BC704723F40063CC6843EA51
:100B9C00042323F48063EDE725F440554C6945EAC2
:100BAC0004158C6945EA0415E7E700BF002C0140E9
:100BBC0030B4036A026A22F4805202624468C26949
:100BCC0022F4E6420D6842EA052223F400538D68B4
:100BDC0043EA0533074DA84206D04460C2614A6817
:100BEC000264036230BC704724F480444D6944EACB
:100BFC008514F2E7002C014010B4036A046A24F057
:100C0C0001040462846924F0F00C4CEA021223F013
:100C1C000A030B438261036210BC704710B4036A71
:100C2C00046A24F010040462846924F4704C4CEAC5
:100C3C00023223F0A00343EA01138261036210BC69
:100C4C007047836823F070030B4343F00703836002
:100C5C0070477047704770477047704710B504462F
:100C6C0003681A6912F0020F11D0DA6812F0020F41
:100C7C000DD06FF002021A610123037703689B69A0
:100C8C0013F0030F70D0FFF7E6FF002323772368E0
:100C9C001A6912F0040F12D0DA6812F0040F0ED099
:100CAC006FF004021A610223237723689B6913F403
:100CBC00407F5FD02046FFF7CEFF002323772368C9
:100CCC001A6912F0080F12D0DA6812F0080F0ED061
:100CDC006FF008021A61042323772368DB6913F091
:100CEC00030F4ED02046FFF7B6FF0023237723686F
:100CFC001A6912F0100F12D0DA6812F0100F0ED021
:100D0C006FF010021A61082323772368DB6913F450
:100D1C00407F3DD02046FFF79EFF002323772368BA
:100D2C001A6912F0010F03D0DA6812F0010F36D1F4
:100D3C0023681A6912F0800F03D0DA6812F0800F62
:100D4C0034D123681A6912F0400F03D0DA6812F01C
:100D5C00400F32D123681A6912F0200F03D0DA68E1
:100D6C0012F0200F30D110BDFFF774FF2046FFF7B3
:100D7C0073FF8AE72046FFF76DFF2046FFF76CFFF5
:100D8C009BE72046FFF766FF2046FFF765FFACE7C1
:100D9C002046FFF75FFF2046FFF75EFFBDE76FF0D1
:100DAC0001021A612046FFF723FEC1E76FF08002B3
:100DBC001A61204600F09AFAC3E76FF040021A61FC
:100DCC002046FFF74AFFC5E76FF020021A61204664
:100DDC0000F08BFAC7E700000368174A904206D070
:100DEC00B0F1804F03D0A2F59432904203D123F09E
:100DFC0070034A681343104A904206D0B0F1804FFA
:100E0C0003D0A2F59432904203D123F44073CA6804
:100E1C00134323F080034A69134303608B68C36256
:100E2C000B688362044B984202D0012343617047E4
:100E3C000B690363F9E700BF002C014040B310B508
:100E4C00044690F83D30F3B1022384F83D3021463E
:100E5C0051F8040BFFF7C0FF012384F8463084F8E7
:100E6C003E3084F83F3084F8403084F8413084F8C8
:100E7C00423084F8433084F8443084F8453084F8A8
:100E8C003D30002010BD80F83C30FFF7BFFCDBE7A5
:100E9C000120704740B310B5044690F83D30F3B1D3
:100EAC00022384F83D30214651F8040BFFF794FFE0
:100EBC00012384F8463084F83E3084F83F3084F8BF
:100ECC00403084F8413084F8423084F8433084F860
:100EDC00443084F8453084F83D30002010BD80F853
:100EEC003C30FFF7B6FEDBE70120704730B4036AF5
:100EFC00026A22F0100202624468826922F4E6421D
:100F0C000D6842EA052223F020038D6843EA05139D
:100F1C000E4DA84209D00D4DA8420ED044608261FE
:100F2C004A688263036230BC704723F08003CD684B
:100F3C0043EA051323F04003EDE724F440644D69C4
:100F4C0044EA85048D6944EA8504E7E7002C0140F6
:100F5C0038B590F83C30012B66D004460D46012381
:100F6C0080F83C300C2A5AD8DFE802F0075959595E
:100F7C001B5959593059595944000068FFF7B8FDAD
:100F8C002268936943F0080393612268936923F004
:100F9C00040393612268936929690B4393610020D0
:100FAC003EE00068FFF7A2FF2268936943F40063F8
:100FBC0093612268936923F4806393612268936937
:100FCC00296943EA01239361002029E00068FFF7B7
:100FDC00BDFD2268D36943F00803D3612268D3694D
:100FEC0023F00403D3612268D36929690B43D361CD
:100FFC00002015E00068FFF7DBFD2268D36943F49D
:10100C000063D3612268D36923F48063D3612268BF
:10101C00D369296943EA0123D361002000E0012050
:10102C00002384F83C3038BD0220FCE710B48468FF
:10103C0024F47F4C42EA03220A4342EA0C02826007
:10104C0010BC704790F83C30012B78D010B504469A
:10105C00012380F83C30022380F83D30026893680D
:10106C0023F47F4323F0770393600B68602B4CD001
:10107C0029D8402B54D00CD9502B22D1CA6849689E
:10108C000068FFF7B9FD50212068FFF7DAFD00205A
:10109C0005E0202B0DD009D9302B0AD001200123DB
:1010AC0084F83D30002384F83C3010BD0BB1102B7C
:1010BC0005D119462068FFF7C4FD0020EFE7012099
:1010CC00EDE70120EBE7B3F5805F34D0B3F5005FBB
:1010DC000CD1CB684A6889680068FFF7A7FF2268C3
:1010EC00936843F4804393600020D8E7702B24D19D
:1010FC00CB684A6889680068FFF798FF2268936894
:10110C0043F0770393600020C9E7CA684968006818
:10111C00FFF784FD60212068FFF793FD0020BEE7F8
:10112C00CA6849680068FFF767FD40212068FFF72F
:10113C0088FD0020B3E70020B1E70120AFE70220D3
:10114C00704701F01F01012303FA01FC036A23EA33
:10115C000C030362036A02FA01F10B43036270474A
:10116C0010B50446084631BB94F83E30DBB2013B67
:10117C0018BF0123002B57D1002835D1022384F846
:10118C003E30012201462068FFF7DBFF2368284A26
:10119C00934239D02368264A93423AD0B3F1804F18
:1011AC0037D0A2F59432934233D01A6842F0010240
:1011BC001A60002039E0042908D008290DD094F8D1
:1011CC004130DBB2013B18BF0123D3E794F83F3029
:1011DC00DBB2013B18BF0123CCE794F84030DBB203
:1011EC00013B18BF0123C5E7042805D0082807D008
:1011FC00022384F84130C4E7022384F83F30C0E76F
:10120C00022384F84030BCE75A6C42F400425A6422
:10121C00C0E79A6802F00702062A07D01A6842F063
:10122C0001021A60002000E0012010BD0020FCE744
:10123C00002C014090F83C30012B28D010B4012335
:10124C0080F83C30022380F83D3003685A689C6873
:10125C0022F0700C0A6842EA0C025A6003680D4ACC
:10126C00934206D0B3F1804F03D0A2F5943293424F
:10127C0004D124F080044A6814439C60012380F854
:10128C003D30002380F83C30184610BC70470220DB
:10129C00704700BF002C014090F83C30012B22D04D
:1012AC00012380F83C30CB6823F440738A681343E5
:1012BC0023F480634A68134323F400630A681343DE
:1012CC0023F480530A69134323F400534A691343EC
:1012DC0023F48043CA69134302685364002380F8E3
:1012EC003C3018467047022070477047704700002A
:1012FC0010B504460E4B18784FF47A73B3FBF0F329
:10130C000C4A1068B0FBF3F000F0B8FC68B90F2C75
:10131C0001D901200AE0002221464FF0FF3000F0F5
:10132C0067FC054B1C60002000E0012010BD00BFD5
:10133C0000000020080000200400002008B5074A27
:10134C00136843F010031360032000F03FFC0F20E0
:10135C00FFF7CEFFFFF7AAFB002008BD00200240DC
:10136C00034A1168034B1B780B441360704700BF92
:10137C000801002000000020014B1868704700BFD6
:10138C000801002082B0084B1B68084AA2FB03230B
:10139C005B0A00FB03F3019300BF019B5A1E0192F1
:1013AC00002BF9D102B0704708000020D34D621019
:1013BC00002800F0F18170B582B00446036813F088
:1013CC00010F2CD0994B5B6803F00C03042B1DD040
:1013DC00964B5B6803F00C03082B12D06368B3F5D3
:1013EC00803F41D0002B55D103F1804303F50433EA
:1013FC001A6822F480321A601A6822F480221A6069
:10140C0037E08A4B5B6813F4803FE7D0874B1B684F
:10141C0013F4003F03D06368002B00F0BF812368F6
:10142C0013F0020F75D0814B5B6813F00C0F5FD07B
:10143C007E4B5B6803F00C03082B54D02369002B04
:10144C0000F08A807A4B01221A60FFF795FF05465F
:10145C00764B1B6813F0020F75D1FFF78DFF401B05
:10146C000228F5D903209EE1704A136843F48033B7
:10147C001360636843B3FFF77FFF05466B4B1B6834
:10148C0013F4003FCBD1FFF777FF401B6428F5D94D
:10149C00032088E1B3F5A02F09D0644B1A6822F41D
:1014AC0080321A601A6822F480221A60E1E703F194
:1014BC008043A3F53C331A6842F480221A601A6800
:1014CC0042F480321A60D4E7FFF756FF0546574BBB
:1014DC001B6813F4003FA2D0FFF74EFF401B64289B
:1014EC00F5D903205FE1514B5B6813F4803FA5D124
:1014FC004E4B1B6813F0020F03D02369012B40F0F5
:10150C004F814A4A136823F0F803616943EAC10327
:10151C001360236813F0080F33D0A369002B5CD041
:10152C00434B0122C3F88024FFF726FF05463F4BAF
:10153C005B6A13F0020F21D1FFF71EFF401B02283C
:10154C00F5D903202FE1394A136823F0F8036169B8
:10155C0043EAC1031360DCE7354B00221A60FFF746
:10156C000BFF0546314B1B6813F0020FD1D0FFF770
:10157C0003FF401B0228F5D9032014E10120FFF7DB
:10158C0001FF236813F0040F00F09680274BDB69F2
:10159C0013F0805F34D1254BDA6942F08052DA6166
:1015AC00DB6903F080530193019B0125214B1B68E0
:1015BC0013F4807F26D0E368012B3DD0002B53D150
:1015CC0003F1804303F504331A6A22F001021A6214
:1015DC001A6A22F004021A6233E0154B0022C3F897
:1015EC008024FFF7C9FE0546104B5B6A13F0020F0F
:1015FC00C7D0FFF7C1FE401B0228F5D90320D2E06B
:10160C000025D3E70B4A136843F480731360FFF78C
:10161C00B3FE0646074B1B6813F4807FCBD1FFF754
:10162C00ABFE801B6428F5D90320BCE000100240FF
:10163C0000004242007000405F4A136A43F001030D
:10164C001362E36833B3FFF797FE06465A4B1B6AE7
:10165C0013F0020F2FD1FFF78FFE801B41F288335E
:10166C009842F3D903209EE0052B09D0524B1A6AFD
:10167C0022F001021A621A6A22F004021A62E0E7EE
:10168C004D4B1A6A42F004021A621A6A42F00102C5
:10169C001A62D6E7FFF770FE0646474B1B6A13F03B
:1016AC00020F08D0FFF768FE801B41F28833984286
:1016BC00F3D9032077E0E5B9E369002B72D03E4AF9
:1016CC00526802F00C02082A56D0022B17D03B4B62
:1016DC0000221A66FFF750FE0446374B1B6813F0C6
:1016EC00007F47D0FFF748FE001B0228F5D90320E6
:1016FC0059E0314AD36923F08053D361DCE72F4B97
:10170C0000221A66FFF738FE05462B4B1B6813F0B8
:10171C00007F06D0FFF730FE401B0228F5D90320CE
:10172C0041E0236AB3F5803F1AD023494B6823F478
:10173C007413226A606A024313434B601F4B0122ED
:10174C001A66FFF719FE04461B4B1B6813F0007F4B
:10175C000ED1FFF711FE001B0228F5D9032022E061
:10176C00154A536823F40033A1680B435360DCE73C
:10177C00002018E0002016E0012B16D00E4B5B6801
:10178C0003F48031226A914211D103F47013626A1E
:10179C0093420ED1002006E001207047012002E0A8
:1017AC00012000E0002002B070BD0120FBE7012009
:1017BC00F9E70120F7E700BF0010024000004242A9
:1017CC000F4B5B6803F00C02082A01D00D487047E0
:1017DC00C3F383420C49885C13F4803F0BD0084B55
:1017EC005B68C3F34043094AD35C064A02FB00F032
:1017FC00B0FBF3F07047064B03FB00F0704700BFE3
:10180C000010024000127A00541E0008641E0008EA
:10181C0000093D00002800F0A08070B50D4604467C
:10182C00524B1B6803F007038B420BD24F4A1368D1
:10183C0023F007030B431360136803F007038B4279
:10184C0040F08D80236813F0020F17D013F0040FB3
:10185C0004D0474A536843F4E0635360236813F0A1
:10186C00080F04D0424A536843F460535360404A13
:10187C00536823F0F003A1680B435360236813F003
:10188C00010F31D06368012B20D0022B25D0384AB0
:10189C00126812F0020F64D035494A6822F0030234
:1018AC0013434B60FFF768FD0646314B5B6803F052
:1018BC000C036268B3EB820F16D0FFF75DFD801B43
:1018CC0041F288339842F0D9032045E0284A126847
:1018DC0012F4003FE0D101203EE0254A126812F0DC
:1018EC00007FD9D1012037E0204B1B6803F00703A0
:1018FC00AB420AD91D4A136823F007032B4313602C
:10190C00136803F00703AB422DD1236813F0040FC7
:10191C0006D0174A536823F4E063E1680B43536025
:10192C00236813F0080F07D0114A536823F460534F
:10193C00216943EAC1035360FFF742FF0C4B5B681C
:10194C00C3F303130B4AD35CD8400B4B18600B4BFF
:10195C001868FFF7CDFC002070BD012070470120F6
:10196C00FAE70120F8E70120F6E700BF002002406B
:10197C0000100240681E000808000020040000202F
:10198C0070B582B00024A4468BE07F4DAA4210D0E3
:10199C0007D97E4DAA420CD005F58035AA4208D055
:1019AC0015E0A5F58015AA4203D005F57025AA42CD
:1019BC0009D18A68002A00F0BF80012A00F0B780A4
:1019CC004361082403E0A5F58015AA42F1D0BEF1CD
:1019DC00FF0F00F2B3800646BEF1FF0F00F2B0809D
:1019EC004FEA8C0233680F25954023EA050304FA6D
:1019FC0002F2134333604B6813F0805F4FD0644B9B
:101A0C009A6942F001029A619B6903F00103019308
:101A1C00019B4FEA9C02951C5E4B53F825600CF021
:101A2C0003039D000F23AB4026EA03065A4B984252
:101A3C0000F08C8003F58063984200F0898003F5F8
:101A4C008063984200F080800323AB403343023222
:101A5C00504D45F822304B6813F4801F7AD04F4A12
:101A6C00936843EA0E0393604B6813F4001F77D01E
:101A7C004A4AD36843EA0E03D3604B6813F4003F21
:101A8C0074D0464A536843EA0E0353604B6813F410
:101A9C00803F71D0414A136843EA0E0313600CF186
:101AAC00010C0A6832FA0CF36CD0012303FA0CF324
:101ABC0002EA030E33EA0202F1D14A68122A3FF617
:101ACC0064AF122A83D801A555F822F0BF1900087B
:101ADC00251B00082F1B0008411B0008DB19000800
:101AEC00DB190008DB190008DB190008DB190008FA
:101AFC00DB190008DB190008DB190008DB190008EA
:101B0C00DB190008DB190008DB190008DB190008D9
:101B1C00291B0008351B0008CC6858E7CC68043436
:101B2C0055E7CC68083452E7CC680C344FE70361B6
:101B3C0008244CE700244AE7042448E7061D4BE739
:101B4C00ACF1080292004DE702237EE700237CE70C
:101B5C0001237AE7114A936823EA0E03936083E723
:101B6C000E4AD36823EA0E03D36086E70B4A536808
:101B7C0023EA0E03536089E7084A136823EA0E032D
:101B8C0013608CE702B070BD000022100000311011
:101B9C000010024000000140000801400004014018
:101BAC008368194201D001207047002070477047AC
:101BBC0008B5054B5B69034200D108BD024B586167
:101BCC00FFF7F5FFF9E700BF00040140074AD368AF
:101BDC0023F4E0631B041B0C000200F4E0600343DD
:101BEC0043F0BF6343F40033D360704700ED00E073
:101BFC0000B5194BDB68C3F30223C3F1070CBCF12E
:101C0C00040F28BF4FF0040C03F1040EBEF1060FB5
:101C1C0018D9033B4FF0FF3E0EFA0CFC21EA0C01E5
:101C2C0099400EFA03F322EA0303194300280BDB55
:101C3C000901C9B200F1604000F5614080F8001361
:101C4C005DF804FB0023E5E700F00F000901C9B2C1
:101C5C00024B1954F4E700BF00ED00E014ED00E076
:101C6C00002807DB00F01F02400901239340024AC1
:101C7C0042F82030704700BF00E100E00138B0F1BD
:101C8C00807F0BD24FF0E0235861054AF02182F897
:101C9C0023100020986107221A61704701207047B9
:101CAC0000ED00E07047016042608360009B83623E
:101CBC00019B436200230361C360C3618361436181
:101CCC00704700002DE9F041044608461146FEF726
:101CDC00EFFA0546E0602168FEF732FA07466061CC
:101CEC00A66821692846FEF7E3FA01463046FEF75E
:101CFC0027FA0646E061256122492846FEF730FCAA
:101D0C0020B921492846FEF749FC20B361682846D2
:101D1C00FEF716FA0146A069FEF7CCFAA061D4F8DA
:101D2C001880A56A29464046FEF738FCB0B1A5617B
:101D3C00A1693846FEF7BEFA01463046FEF7BAFAFC
:101D4C0005462062666A3146FEF728FC80B12662A1
:101D5C00206ABDE8F0810023A361E0E705F10045AE
:101D6C0029464046FEF7FCFB0028E1D0A561DFE7E1
:101D7C0006F1004631462846FEF7F2FB0028E7D074
:101D8C002662E5E70000A0410000A0C1FFF78AFF32
:101D9C000B480C490C4A002302E0D458C4500433BD
:101DAC00C4188C42F9D3094A094C002301E0136092
:101DBC000432A242FBD300F00FF8FEF753FC70473D
:101DCC00000000200C000020801E00080C000020E9
:101DDC0038010020FEE7000070B500260C4D0D4CBC
:101DEC00641BA410A64209D100F022F800260A4D6B
:101DFC000A4C641BA410A64205D170BD55F8043BD7
:101E0C0098470136EEE755F8043B98470136F2E760
:101E1C00781E0008781E0008781E00087C1E00083A
:101E2C0003460244934200D1704703F8011BF9E7C3
:101E3C00F8B500BFF8BC08BC9E467047F8B500BFAB
:081E4C00F8BC08BC9E4670477B
:101E540002030405060708090A0B0C0D0E0F1010E7
:101E64000102000000000000000000000102030461
:041E7400060708094C
:041E7800310100082C
:041E7C000D0100084C
:0C1E800001000000100000000024F4002D
:0400000508001D9939
:00000001FF
