:020000040800F2
:100000000028002055180008710500087305000835
:100010007505000877050008790500080000000054
:100020000000000000000000000000007B05000848
:100030007D050008000000007F050008810500081C
:100040009D1800089D1800089D1800089D180008BC
:100050009D1800089D1800089D18000889050008D3
:100060009D1800089D1800089D1800089D1800089C
:100070009D1800089D1800089D1800089D1800088C
:100080009D1800089D1800089D1800089D1800087C
:100090009D1800089D1800089D1800089D1800086C
:1000A0009D1800089D1800089D1800089D1800085C
:1000B0009D18000895050008000000009D18000824
:1000C0009D18000800000000000000009D180008B6
:1000D000000000009D1800089D18000800000000A6
:1000E0009D1800089D1800089D18000800000000D9
:1000F0000000000000000000000000000000000000
:0C01000000000000000000005FF808F1A3
:10010C0010B5054C237833B9044B13B10448AFF345
:10011C0000800123237010BD0C00002000000000A3
:10012C00F818000808B5034B1BB103490348AFF39B
:10013C00008008BD0000000010000020F818000826
:10014C0072B6FEE700B591B02822002106A801F096
:10015C00C5FB00230193029303930493059301229F
:10016C0006924FF4803307930A9202220D920E935B
:10017C004FF4E0130F9306A800F0EAFE80B90F23AA
:10018C00019302210291002303934FF480620492A5
:10019C00059301A801F00EF920B911B05DF804FB2C
:1001AC00FFF7CEFFFFF7CCFF08B500F097FEFFF787
:1001BC00C9FF00F017F800F041F900F04FF800F01B
:1001CC0087F80021044800F09BFD044800F0B8FAC1
:1001DC00034800F0DFFAFEE72C000020740000203A
:1001EC00BC00002010B588B000240494059406943B
:1001FC000794174B9A6942F010029A619A6902F0BF
:10020C0010020192019A9A6942F020029A619A694D
:10021C0002F020020292029A9A6942F004029A6158
:10022C009B6903F004030393039B02230493094B80
:10023C00059304A9084801F073F9224621460720CA
:10024C0001F0A6FA072001F0DBFA08B010BD00BFE0
:10025C0000100240000031100008014000B587B0CA
:10026C00002302930393049305930093019317487F
:10027C004FF080420260436083604EF66022C260A1
:10028C000361836100F0AAFBB0B94FF400530293F1
:10029C00002303930493059302A90C4800F0A2FCDD
:1002AC0068B90023009301936946084800F092FD59
:1002BC0040B907B05DF804FBFFF742FFE5E7FFF735
:1002CC003FFFEEE7FFF73CFFF3E700BF74000020B1
:1002DC0000B587B000230293039304930593009316
:1002EC0001931548154A026047224260836041F22F
:1002FC008732C26003618023836100F06FFB90B989
:10030C004FF48053029302A90B4800F06BFC68B9C0
:10031C000023009301936946074800F05BFD40B948
:10032C0007B05DF804FBFFF70BFFE9E7FFF708FFE9
:10033C00EEE7FFF705FFF3E7BC00002000040040E8
:10034C0000B589B0002304930593069307930368C3
:10035C00224A934208D0B3F1804F10D0204A9342E6
:10036C0028D009B05DF804FB1E4B9A6942F4006278
:10037C009A619B6903F400630093009BF1E703F51A
:10038C000433DA6942F00102DA61DA6902F001023F
:10039C000192019A9A6942F004029A619B6903F0F6
:1003AC0004030293029B0123049304A90E4801F059
:1003BC00B7F8D6E70B4BDA6942F00202DA61DB6977
:1003CC0003F002030393039B002211461D2001F04E
:1003DC00DFF91D2001F014FAC3E700BF002C014027
:1003EC0000040040001002400008014000B587B036
:1003FC000023029303930493059302680D4B9A42D6
:10040C0002D007B05DF804FB03F564439A6942F02F
:10041C0004029A619B6903F004030193019B4FF45E
:10042C008073029302230393059302A9024801F0FF
:10043C0077F8E6E7002C01400008014010B596B0B3
:10044C0000241294139414941594109411940994F8
:10045C000A940B940C940D940E940F942022214624
:10046C0001A801F03BFA2D482D4B03604723436054
:10047C0084606323C360046144618023836100F062
:10048C00ADFA002838D14FF48053129312A92348A7
:10049C0000F0A8FB002832D1204800F0CBFA00284D
:1004AC0030D100231093119310A91C4800F092FC3A
:1004BC0058BB6023099306230A9300220B920C92DB
:1004CC000D920E920F9209A9144800F011FBF8B985
:1004DC000023019302930393049305934FF400526A
:1004EC000692089301A90D4800F0A6FC98B90B4898
:1004FC00FFF77CFF16B010BDFFF722FEC3E7FFF736
:10050C001FFEC9E7FFF71CFECBE7FFF719FED0E78C
:10051C00FFF716FEDCE7FFF713FEE8E72C000020E0
:10052C00002C014008B50268094B1B689A4200D0A8
:10053C0008BD0221074801F003F9074B1870074B5F
:10054C001B68596A064A118000225A62F0E700BF04
:10055C00BC000020000801402A000020740000208C
:10056C0028000020FEE7FEE7FEE7FEE7FEE7704707
:10057C007047704708B500F0C3FC08BD08B50220F1
:10058C0001F0E6F808BD000008B5024800F037F9A4
:10059C0008BD00BFBC00002082B00E4B9A6942F02F
:1005AC0001029A619A6902F001020092009ADA69DA
:1005BC0042F08052DA61DB6903F080530193019BB6
:1005CC00054A536823F0E06343F00073536002B0B4
:1005DC00704700BF001002400000014070B4036A75
:1005EC00026A22F0010202624668826922F07302FA
:1005FC000C6844EA020523F002028B6813430D4C8D
:10060C00A04209D00B4CA0420DD0466085614A68CF
:10061C004263036270BC704723F00803CA6813433B
:10062C0023F00403EEE726F440764A6932438E69E0
:10063C001643EAE7002C014030B4036A026A22F444
:10064C00807202624568C26922F073020C68224310
:10065C0023F400738C6843EA04230F4CA04209D0A6
:10066C000D4CA0420ED04560C2614A68C263036261
:10067C0030BC704723F40063CC6843EA042323F4B2
:10068C008063EDE725F440554C6945EA04158C6907
:10069C0045EA0415E7E700BF002C014030B4036ABB
:1006AC00026A22F4805202624468C26922F4E64271
:1006BC000D6842EA052223F400538D6843EA0533A2
:1006CC00074DA84206D04460C2614A6802640362C6
:1006DC0030BC704724F480444D6944EA8514F2E739
:1006EC00002C014010B4036A046A24F00104046273
:1006FC00846924F0F00C4CEA021223F00A030B4339
:10070C008261036210BC704710B4036A046A24F05F
:10071C0010040462846924F4704C4CEA023223F015
:10072C00A00343EA01138261036210BC7047836823
:10073C0023F070030B4343F0070383607047000002
:10074C0090F83D30DBB2012B1ED1022380F83D30F6
:10075C0003680F4A93420CD0B3F1804F09D0A2F535
:10076C009432934205D01A6842F001021A600020BC
:10077C0070479A6802F00702062A07D01A6842F0FE
:10078C0001021A600020704701207047002070475A
:10079C00002C014090F83D30DBB2012B23D1022319
:1007AC0080F83D300268D36843F00103D3600368DE
:1007BC000F4A93420CD0B3F1804F09D0A2F594327A
:1007CC00934205D01A6842F001021A60002070476B
:1007DC009A6802F00702062A07D01A6842F0010252
:1007EC001A6000207047012070470020704700BF3E
:1007FC00002C01407047704770477047704710B528
:10080C00044603681A6912F0020F11D0DA6812F06C
:10081C00020F0DD06FF002021A61012303770368F7
:10082C009B6913F0030F70D0FFF7E6FF00232377CB
:10083C0023681A6912F0040F12D0DA6812F0040F50
:10084C000ED06FF004021A610223237723689B6990
:10085C0013F4407F5FD02046FFF7CEFF00232377B1
:10086C0023681A6912F0080F12D0DA6812F0080F18
:10087C000ED06FF008021A61042323772368DB691A
:10088C0013F0030F4ED02046FFF7B6FF002323775B
:10089C0023681A6912F0100F12D0DA6812F0100FD8
:1008AC000ED06FF010021A61082323772368DB69DE
:1008BC0013F4407F3DD02046FFF79EFF00232377A3
:1008CC0023681A6912F0010F03D0DA6812F0010FD5
:1008DC0036D123681A6912F0800F03D0DA6812F04F
:1008EC00800F34D123681A6912F0400F03D0DA68F4
:1008FC0012F0400F32D123681A6912F0200F03D086
:10090C00DA6812F0200F30D110BDFFF774FF2046CB
:10091C00FFF773FF8AE72046FFF76DFF2046FFF7CE
:10092C006CFF9BE72046FFF766FF2046FFF765FF4D
:10093C00ACE72046FFF75FFF2046FFF75EFFBDE701
:10094C006FF001021A612046FFF7ECFDC1E76FF072
:10095C0080021A61204600F099FAC3E76FF040025A
:10096C001A612046FFF74AFFC5E76FF020021A61B3
:10097C00204600F08AFAC7E70368174A904206D06F
:10098C00B0F1804F03D0A2F59432904203D123F002
:10099C0070034A681343104A904206D0B0F1804F5E
:1009AC0003D0A2F59432904203D123F44073CA6869
:1009BC00134323F080034A69134303608B68C362BB
:1009CC000B688362044B984202D001234361704749
:1009DC000B690363F9E700BF002C014040B310B56D
:1009EC00044690F83D30F3B1022384F83D302146A3
:1009FC0051F8040BFFF7C0FF012384F8463084F84C
:100A0C003E3084F83F3084F8403084F8413084F82C
:100A1C00423084F8433084F8443084F8453084F80C
:100A2C003D30002010BD80F83C30FFF789FCDBE73F
:100A3C000120704740B310B5044690F83D30F3B137
:100A4C00022384F83D30214651F8040BFFF794FF44
:100A5C00012384F8463084F83E3084F83F3084F823
:100A6C00403084F8413084F8423084F8433084F8C4
:100A7C00443084F8453084F83D30002010BD80F8B7
:100A8C003C30FFF7B7FEDBE70120704730B4036A58
:100A9C00026A22F0100202624468826922F4E64281
:100AAC000D6842EA052223F020038D6843EA051302
:100ABC000E4DA84209D00D4DA8420ED04460826163
:100ACC004A688263036230BC704723F08003CD68B0
:100ADC0043EA051323F04003EDE724F440644D6929
:100AEC0044EA85048D6944EA8504E7E7002C01405B
:100AFC0038B590F83C30012B66D004460D460123E6
:100B0C0080F83C300C2A5AD8DFE802F007595959C2
:100B1C001B5959593059595944000068FFF75EFD6B
:100B2C002268936943F0080393612268936923F068
:100B3C00040393612268936929690B439361002034
:100B4C003EE00068FFF7A2FF2268936943F400635C
:100B5C0093612268936923F480639361226893699B
:100B6C00296943EA01239361002029E00068FFF71B
:100B7C0063FD2268D36943F00803D3612268D3690B
:100B8C0023F00403D3612268D36929690B43D36131
:100B9C00002015E00068FFF781FD2268D36943F45B
:100BAC000063D3612268D36923F48063D361226824
:100BBC00D369296943EA0123D361002000E00120B5
:100BCC00002384F83C3038BD0220FCE710B4846864
:100BDC0024F47F4C42EA03220A4342EA0C0282606C
:100BEC0010BC704790F83C30012B78D010B50446FF
:100BFC00012380F83C30022380F83D300268936872
:100C0C0023F47F4323F0770393600B68602B4CD065
:100C1C0029D8402B54D00CD9502B22D1CA68496802
:100C2C000068FFF75FFD50212068FFF780FD002072
:100C3C0005E0202B0DD009D9302B0AD0012001233F
:100C4C0084F83D30002384F83C3010BD0BB1102BE0
:100C5C0005D119462068FFF76AFD0020EFE7012057
:100C6C00EDE70120EBE7B3F5805F34D0B3F5005F1F
:100C7C000CD1CB684A6889680068FFF7A7FF226827
:100C8C00936843F4804393600020D8E7702B24D101
:100C9C00CB684A6889680068FFF798FF22689368F8
:100CAC0043F0770393600020C9E7CA68496800687D
:100CBC00FFF72AFD60212068FFF739FD0020BEE711
:100CCC00CA6849680068FFF70DFD40212068FFF7EE
:100CDC002EFD0020B3E70020B1E70120AFE7022092
:100CEC00704701F01F01012303FA01FC036A23EA98
:100CFC000C030362036A02FA01F10B4303627047AF
:100D0C0010B50446084631BB94F83E30DBB2013BCB
:100D1C0018BF0123002B57D1002835D1022384F8AA
:100D2C003E30012201462068FFF7DBFF2368284A8A
:100D3C00934239D02368264A93423AD0B3F1804F7C
:100D4C0037D0A2F59432934233D01A6842F00102A4
:100D5C001A60002039E0042908D008290DD094F835
:100D6C004130DBB2013B18BF0123D3E794F83F308D
:100D7C00DBB2013B18BF0123CCE794F84030DBB267
:100D8C00013B18BF0123C5E7042805D0082807D06C
:100D9C00022384F84130C4E7022384F83F30C0E7D3
:100DAC00022384F84030BCE75A6C42F400425A6487
:100DBC00C0E79A6802F00702062A07D01A6842F0C8
:100DCC0001021A60002000E0012010BD0020FCE7A9
:100DDC00002C014090F83C30012B28D010B401239A
:100DEC0080F83C30022380F83D3003685A689C68D8
:100DFC0022F0700C0A6842EA0C025A6003680D4A31
:100E0C00934206D0B3F1804F03D0A2F594329342B3
:100E1C0004D124F080044A6814439C60012380F8B8
:100E2C003D30002380F83C30184610BC704702203F
:100E3C00704700BF002C014090F83C30012B22D0B1
:100E4C00012380F83C30CB6823F440738A68134349
:100E5C0023F480634A68134323F400630A68134342
:100E6C0023F480530A69134323F400534A69134350
:100E7C0023F48043CA69134302685364002380F847
:100E8C003C3018467047022070477047704700008E
:100E9C0010B504460E4B18784FF47A73B3FBF0F38D
:100EAC000C4A1068B0FBF3F000F0B8FC68B90F2CDA
:100EBC0001D901200AE0002221464FF0FF3000F05A
:100ECC0067FC054B1C60002000E0012010BD00BF3A
:100EDC0000000020080000200400002008B5074A8C
:100EEC00136843F010031360032000F03FFC0F2045
:100EFC00FFF7CEFFFFF750FB002008BD002002409B
:100F0C00034A1168034B1B780B441360704700BFF6
:100F1C000401002000000020014B1868704700BF3E
:100F2C000401002082B0084B1B68084AA2FB032373
:100F3C005B0A00FB03F3019300BF019B5A1E019255
:100F4C00002BF9D102B0704708000020D34D62107D
:100F5C00002800F0F18170B582B00446036813F0EC
:100F6C00010F2CD0994B5B6803F00C03042B1DD0A4
:100F7C00964B5B6803F00C03082B12D06368B3F537
:100F8C00803F41D0002B55D103F1804303F504334E
:100F9C001A6822F480321A601A6822F480221A60CD
:100FAC0037E08A4B5B6813F4803FE7D0874B1B68B4
:100FBC0013F4003F03D06368002B00F0BF8123685B
:100FCC0013F0020F75D0814B5B6813F00C0F5FD0E0
:100FDC007E4B5B6803F00C03082B54D02369002B69
:100FEC0000F08A807A4B01221A60FFF795FF0546C4
:100FFC00764B1B6813F0020F75D1FFF78DFF401B6A
:10100C000228F5D903209EE1704A136843F480331B
:10101C001360636843B3FFF77FFF05466B4B1B6898
:10102C0013F4003FCBD1FFF777FF401B6428F5D9B1
:10103C00032088E1B3F5A02F09D0644B1A6822F481
:10104C0080321A601A6822F480221A60E1E703F1F8
:10105C008043A3F53C331A6842F480221A601A6864
:10106C0042F480321A60D4E7FFF756FF0546574B1F
:10107C001B6813F4003FA2D0FFF74EFF401B6428FF
:10108C00F5D903205FE1514B5B6813F4803FA5D188
:10109C004E4B1B6813F0020F03D02369012B40F059
:1010AC004F814A4A136823F0F803616943EAC1038C
:1010BC001360236813F0080F33D0A369002B5CD0A6
:1010CC00434B0122C3F88024FFF726FF05463F4B14
:1010DC005B6A13F0020F21D1FFF71EFF401B0228A1
:1010EC00F5D903202FE1394A136823F0F80361691D
:1010FC0043EAC1031360DCE7354B00221A60FFF7AB
:10110C000BFF0546314B1B6813F0020FD1D0FFF7D4
:10111C0003FF401B0228F5D9032014E10120FFF73F
:10112C0001FF236813F0040F00F09680274BDB6956
:10113C0013F0805F34D1254BDA6942F08052DA61CA
:10114C00DB6903F080530193019B0125214B1B6844
:10115C0013F4807F26D0E368012B3DD0002B53D1B4
:10116C0003F1804303F504331A6A22F001021A6278
:10117C001A6A22F004021A6233E0154B0022C3F8FB
:10118C008024FFF7C9FE0546104B5B6A13F0020F73
:10119C00C7D0FFF7C1FE401B0228F5D90320D2E0CF
:1011AC000025D3E70B4A136843F480731360FFF7F1
:1011BC00B3FE0646074B1B6813F4807FCBD1FFF7B9
:1011CC00ABFE801B6428F5D90320BCE00010024064
:1011DC0000004242007000405F4A136A43F0010372
:1011EC001362E36833B3FFF797FE06465A4B1B6A4C
:1011FC0013F0020F2FD1FFF78FFE801B41F28833C3
:10120C009842F3D903209EE0052B09D0524B1A6A61
:10121C0022F001021A621A6A22F004021A62E0E752
:10122C004D4B1A6A42F004021A621A6A42F0010229
:10123C001A62D6E7FFF770FE0646474B1B6A13F09F
:10124C00020F08D0FFF768FE801B41F288339842EA
:10125C00F3D9032077E0E5B9E369002B72D03E4A5D
:10126C00526802F00C02082A56D0022B17D03B4BC6
:10127C0000221A66FFF750FE0446374B1B6813F02A
:10128C00007F47D0FFF748FE001B0228F5D903204A
:10129C0059E0314AD36923F08053D361DCE72F4BFB
:1012AC0000221A66FFF738FE05462B4B1B6813F01D
:1012BC00007F06D0FFF730FE401B0228F5D9032033
:1012CC0041E0236AB3F5803F1AD023494B6823F4DD
:1012DC007413226A606A024313434B601F4B012252
:1012EC001A66FFF719FE04461B4B1B6813F0007FB0
:1012FC000ED1FFF711FE001B0228F5D9032022E0C6
:10130C00154A536823F40033A1680B435360DCE7A0
:10131C00002018E0002016E0012B16D00E4B5B6865
:10132C0003F48031226A914211D103F47013626A82
:10133C0093420ED1002006E001207047012002E00C
:10134C00012000E0002002B070BD0120FBE701206D
:10135C00F9E70120F7E700BF00100240000042420D
:10136C000F4B5B6803F00C02082A01D00D48704744
:10137C00C3F383420C49885C13F4803F0BD0084BB9
:10138C005B68C3F34043094AD35C064A02FB00F096
:10139C00B0FBF3F07047064B03FB00F0704700BF47
:1013AC000010024000127A001019000820190008E1
:1013BC0000093D00002800F0A08070B50D460446E1
:1013CC00524B1B6803F007038B420BD24F4A136836
:1013DC0023F007030B431360136803F007038B42DE
:1013EC0040F08D80236813F0020F17D013F0040F18
:1013FC0004D0474A536843F4E0635360236813F006
:10140C00080F04D0424A536843F460535360404A77
:10141C00536823F0F003A1680B435360236813F067
:10142C00010F31D06368012B20D0022B25D0384A14
:10143C00126812F0020F64D035494A6822F0030298
:10144C0013434B60FFF768FD0646314B5B6803F0B6
:10145C000C036268B3EB820F16D0FFF75DFD801BA7
:10146C0041F288339842F0D9032045E0284A1268AB
:10147C0012F4003FE0D101203EE0254A126812F040
:10148C00007FD9D1012037E0204B1B6803F0070304
:10149C00AB420AD91D4A136823F007032B43136090
:1014AC00136803F00703AB422DD1236813F0040F2C
:1014BC0006D0174A536823F4E063E1680B4353608A
:1014CC00236813F0080F07D0114A536823F46053B4
:1014DC00216943EAC1035360FFF742FF0C4B5B6881
:1014EC00C3F303130B4AD35CD8400B4B18600B4B64
:1014FC001868FFF7CDFC002070BD0120704701205B
:10150C00FAE70120F8E70120F6E700BF00200240CF
:10151C0000100240241900080800002004000020DC
:10152C0070B582B00024A4468BE07F4DAA4210D047
:10153C0007D97E4DAA420CD005F58035AA4208D0B9
:10154C0015E0A5F58015AA4203D005F57025AA4231
:10155C0009D18A68002A00F0BF80012A00F0B78008
:10156C004361082403E0A5F58015AA42F1D0BEF131
:10157C00FF0F00F2B3800646BEF1FF0F00F2B08001
:10158C004FEA8C0233680F25954023EA050304FAD1
:10159C0002F2134333604B6813F0805F4FD0644BFF
:1015AC009A6942F001029A619B6903F0010301936D
:1015BC00019B4FEA9C02951C5E4B53F825600CF086
:1015CC0003039D000F23AB4026EA03065A4B9842B7
:1015DC0000F08C8003F58063984200F0898003F55D
:1015EC008063984200F080800323AB403343023287
:1015FC00504D45F822304B6813F4801F7AD04F4A77
:10160C00936843EA0E0393604B6813F4001F77D082
:10161C004A4AD36843EA0E03D3604B6813F4003F85
:10162C0074D0464A536843EA0E0353604B6813F474
:10163C00803F71D0414A136843EA0E0313600CF1EA
:10164C00010C0A6832FA0CF36CD0012303FA0CF388
:10165C0002EA030E33EA0202F1D14A68122A3FF67B
:10166C0064AF122A83D801A555F822F05F15000843
:10167C00C5160008CF160008E11600087B150008F7
:10168C007B1500087B1500087B1500087B150008EE
:10169C007B1500087B1500087B1500087B150008DE
:1016AC007B1500087B1500087B1500087B150008CE
:1016BC00C9160008D5160008CC6858E7CC68043465
:1016CC0055E7CC68083452E7CC680C344FE703611B
:1016DC0008244CE700244AE7042448E7061D4BE79E
:1016EC00ACF1080292004DE702237EE700237CE771
:1016FC0001237AE7114A936823EA0E03936083E788
:10170C000E4AD36823EA0E03D36086E70B4A53686C
:10171C0023EA0E03536089E7084A136823EA0E0391
:10172C0013608CE702B070BD000022100000311075
:10173C00001002400000014000080140000401407C
:10174C008368194201D00120704700207047704710
:10175C0008B5054B5B69034200D108BD024B5861CB
:10176C00FFF7F5FFF9E700BF00040140074AD36813
:10177C0023F4E0631B041B0C000200F4E060034341
:10178C0043F0BF6343F40033D360704700ED00E0D7
:10179C0000B5194BDB68C3F30223C3F1070CBCF192
:1017AC00040F28BF4FF0040C03F1040EBEF1060F1A
:1017BC0018D9033B4FF0FF3E0EFA0CFC21EA0C014A
:1017CC0099400EFA03F322EA0303194300280BDBBA
:1017DC000901C9B200F1604000F5614080F80013C6
:1017EC005DF804FB0023E5E700F00F000901C9B226
:1017FC00024B1954F4E700BF00ED00E014ED00E0DB
:10180C00002807DB00F01F02400901239340024A25
:10181C0042F82030704700BF00E100E00138B0F121
:10182C00807F0BD24FF0E0235861054AF02182F8FB
:10183C0023100020986107221A617047012070471D
:10184C0000ED00E070470000FFF7FCFF0B480C496F
:10185C000C4A002302E0D458C4500433C4188C4200
:10186C00F9D3094A094C002301E013600432A24267
:10187C00FBD300F00FF8FEF797FC70470000002038
:10188C000C0000203C1900080C000020080100206E
:10189C00FEE7000070B500260C4D0D4C641BA41027
:1018AC00A64209D100F022F800260A4D0A4C641B0E
:1018BC00A410A64205D170BD55F8043B98470136DB
:1018CC00EEE755F8043B98470136F2E73419000867
:1018DC00341900083419000838190008034602446A
:1018EC00934200D1704703F8011BF9E7F8B500BF2C
:1018FC00F8BC08BC9E467047F8B500BFF8BC08BCE5
:04190C009E4670473C
:1019100002030405060708090A0B0C0D0E0F101030
:1019200001020000000000000000000001020304AA
:041930000607080995
:041934003101000875
:041938000D01000895
:0C193C0001000000100000000024F40076
:040000050800185582
:00000001FF
